{
  "contractName": "Auction",
  "abi": [
    {
      "inputs": [],
      "payable": false,
      "stateMutability": "nonpayable",
      "type": "constructor"
    },
    {
      "constant": true,
      "inputs": [
        {
          "internalType": "uint256",
          "name": "",
          "type": "uint256"
        }
      ],
      "name": "addr",
      "outputs": [
        {
          "internalType": "address",
          "name": "",
          "type": "address"
        }
      ],
      "payable": false,
      "stateMutability": "view",
      "type": "function"
    },
    {
      "constant": true,
      "inputs": [
        {
          "internalType": "address",
          "name": "",
          "type": "address"
        }
      ],
      "name": "bidderdetail",
      "outputs": [
        {
          "internalType": "string",
          "name": "name",
          "type": "string"
        },
        {
          "internalType": "string",
          "name": "phone_number",
          "type": "string"
        },
        {
          "internalType": "uint256",
          "name": "amount",
          "type": "uint256"
        },
        {
          "internalType": "bool",
          "name": "isuser",
          "type": "bool"
        },
        {
          "internalType": "address",
          "name": "addr",
          "type": "address"
        }
      ],
      "payable": false,
      "stateMutability": "view",
      "type": "function"
    },
    {
      "constant": true,
      "inputs": [],
      "name": "bidvalue",
      "outputs": [
        {
          "internalType": "uint256",
          "name": "",
          "type": "uint256"
        }
      ],
      "payable": false,
      "stateMutability": "view",
      "type": "function"
    },
    {
      "constant": true,
      "inputs": [],
      "name": "cancel",
      "outputs": [
        {
          "internalType": "bool",
          "name": "",
          "type": "bool"
        }
      ],
      "payable": false,
      "stateMutability": "view",
      "type": "function"
    },
    {
      "constant": true,
      "inputs": [],
      "name": "checkmin",
      "outputs": [
        {
          "internalType": "bool",
          "name": "",
          "type": "bool"
        }
      ],
      "payable": false,
      "stateMutability": "view",
      "type": "function"
    },
    {
      "constant": true,
      "inputs": [],
      "name": "currentbid",
      "outputs": [
        {
          "internalType": "uint256",
          "name": "",
          "type": "uint256"
        }
      ],
      "payable": false,
      "stateMutability": "view",
      "type": "function"
    },
    {
      "constant": true,
      "inputs": [],
      "name": "end",
      "outputs": [
        {
          "internalType": "bool",
          "name": "",
          "type": "bool"
        }
      ],
      "payable": false,
      "stateMutability": "view",
      "type": "function"
    },
    {
      "constant": true,
      "inputs": [],
      "name": "highestbidder",
      "outputs": [
        {
          "internalType": "address",
          "name": "",
          "type": "address"
        }
      ],
      "payable": false,
      "stateMutability": "view",
      "type": "function"
    },
    {
      "constant": true,
      "inputs": [],
      "name": "minbid",
      "outputs": [
        {
          "internalType": "uint256",
          "name": "",
          "type": "uint256"
        }
      ],
      "payable": false,
      "stateMutability": "view",
      "type": "function"
    },
    {
      "constant": true,
      "inputs": [],
      "name": "name",
      "outputs": [
        {
          "internalType": "string",
          "name": "",
          "type": "string"
        }
      ],
      "payable": false,
      "stateMutability": "view",
      "type": "function"
    },
    {
      "constant": true,
      "inputs": [],
      "name": "owner",
      "outputs": [
        {
          "internalType": "address",
          "name": "",
          "type": "address"
        }
      ],
      "payable": false,
      "stateMutability": "view",
      "type": "function"
    },
    {
      "constant": true,
      "inputs": [],
      "name": "phone_number",
      "outputs": [
        {
          "internalType": "string",
          "name": "",
          "type": "string"
        }
      ],
      "payable": false,
      "stateMutability": "view",
      "type": "function"
    },
    {
      "constant": true,
      "inputs": [],
      "name": "size",
      "outputs": [
        {
          "internalType": "uint256",
          "name": "",
          "type": "uint256"
        }
      ],
      "payable": false,
      "stateMutability": "view",
      "type": "function"
    },
    {
      "constant": true,
      "inputs": [],
      "name": "strt",
      "outputs": [
        {
          "internalType": "bool",
          "name": "",
          "type": "bool"
        }
      ],
      "payable": false,
      "stateMutability": "view",
      "type": "function"
    },
    {
      "constant": true,
      "inputs": [],
      "name": "title",
      "outputs": [
        {
          "internalType": "string",
          "name": "",
          "type": "string"
        }
      ],
      "payable": false,
      "stateMutability": "view",
      "type": "function"
    },
    {
      "constant": true,
      "inputs": [],
      "name": "winneraddress",
      "outputs": [
        {
          "internalType": "address",
          "name": "",
          "type": "address"
        }
      ],
      "payable": false,
      "stateMutability": "view",
      "type": "function"
    },
    {
      "constant": true,
      "inputs": [],
      "name": "winningvalue",
      "outputs": [
        {
          "internalType": "uint256",
          "name": "",
          "type": "uint256"
        }
      ],
      "payable": false,
      "stateMutability": "view",
      "type": "function"
    },
    {
      "constant": false,
      "inputs": [
        {
          "internalType": "string",
          "name": "_name",
          "type": "string"
        },
        {
          "internalType": "string",
          "name": "_phone_number",
          "type": "string"
        }
      ],
      "name": "createuser",
      "outputs": [],
      "payable": false,
      "stateMutability": "nonpayable",
      "type": "function"
    },
    {
      "constant": false,
      "inputs": [
        {
          "internalType": "string",
          "name": "_title",
          "type": "string"
        }
      ],
      "name": "setTitle",
      "outputs": [],
      "payable": false,
      "stateMutability": "nonpayable",
      "type": "function"
    },
    {
      "constant": false,
      "inputs": [
        {
          "internalType": "uint256",
          "name": "_minubid",
          "type": "uint256"
        }
      ],
      "name": "minimumbid",
      "outputs": [],
      "payable": false,
      "stateMutability": "nonpayable",
      "type": "function"
    },
    {
      "constant": false,
      "inputs": [
        {
          "internalType": "uint256",
          "name": "_bidvalue",
          "type": "uint256"
        }
      ],
      "name": "createbid",
      "outputs": [],
      "payable": false,
      "stateMutability": "nonpayable",
      "type": "function"
    },
    {
      "constant": false,
      "inputs": [],
      "name": "startAuction",
      "outputs": [],
      "payable": false,
      "stateMutability": "nonpayable",
      "type": "function"
    },
    {
      "constant": false,
      "inputs": [],
      "name": "cancelAuction",
      "outputs": [],
      "payable": false,
      "stateMutability": "nonpayable",
      "type": "function"
    },
    {
      "constant": false,
      "inputs": [],
      "name": "endAuction",
      "outputs": [],
      "payable": true,
      "stateMutability": "payable",
      "type": "function"
    }
  ],
  "bytecode": "0x60806040526000600555600060065560006007556000600c60006101000a81548160ff0219169083151502179055506000600c60016101000a81548160ff0219169083151502179055506000600c60026101000a81548160ff0219169083151502179055506000600c60036101000a81548160ff02191690831515021790555034801561008b57600080fd5b50336000806101000a81548173ffffffffffffffffffffffffffffffffffffffff021916908373ffffffffffffffffffffffffffffffffffffffff16021790555061282f806100db6000396000f3fe60806040526004361061014b5760003560e01c8063a9e9aa38116100b6578063ea8a1af01161006f578063ea8a1af0146108fe578063efbe1c1c1461092d578063f7e144cb1461095c578063fd5042fa146109b3578063fe67a54b146109de578063ffa18649146109e85761014b565b8063a9e9aa3814610633578063acd9f62d1461065e578063ba0a3067146107bd578063bd273519146107ec578063d2ba80731461087c578063dcbfb0ff146108a75761014b565b80636d663946116101085780636d6639461461031c57806372910be01461035757806377bc80a21461041f5780638da5cb5b1461059a5780638fa8b790146105f1578063949d225d146106085761014b565b806301bc25491461015057806306fdde031461017f578063403fb9711461020f5780634a79d50c1461023a578063699f5252146102ca5780636b64c76914610305575b600080fd5b34801561015c57600080fd5b50610165610a63565b604051808215151515815260200191505060405180910390f35b34801561018b57600080fd5b50610194610a76565b6040518080602001828103825283818151815260200191508051906020019080838360005b838110156101d45780820151818401526020810190506101b9565b50505050905090810190601f1680156102015780820380516001836020036101000a031916815260200191505b509250505060405180910390f35b34801561021b57600080fd5b50610224610b14565b6040518082815260200191505060405180910390f35b34801561024657600080fd5b5061024f610b1a565b6040518080602001828103825283818151815260200191508051906020019080838360005b8381101561028f578082015181840152602081019050610274565b50505050905090810190601f1680156102bc5780820380516001836020036101000a031916815260200191505b509250505060405180910390f35b3480156102d657600080fd5b50610303600480360360208110156102ed57600080fd5b8101908080359060200190929190505050610bb8565b005b34801561031157600080fd5b5061031a610fff565b005b34801561032857600080fd5b506103556004803603602081101561033f57600080fd5b81019080803590602001909291905050506112ff565b005b34801561036357600080fd5b5061041d6004803603602081101561037a57600080fd5b810190808035906020019064010000000081111561039757600080fd5b8201836020820111156103a957600080fd5b803590602001918460018302840111640100000000831117156103cb57600080fd5b91908080601f016020809104026020016040519081016040528093929190818152602001838380828437600081840152601f19601f8201169050808301925050505050505091929192905050506113e6565b005b34801561042b57600080fd5b5061046e6004803603602081101561044257600080fd5b81019080803573ffffffffffffffffffffffffffffffffffffffff169060200190929190505050611400565b604051808060200180602001868152602001851515151581526020018473ffffffffffffffffffffffffffffffffffffffff1673ffffffffffffffffffffffffffffffffffffffff168152602001838103835288818151815260200191508051906020019080838360005b838110156104f45780820151818401526020810190506104d9565b50505050905090810190601f1680156105215780820380516001836020036101000a031916815260200191505b50838103825287818151815260200191508051906020019080838360005b8381101561055a57808201518184015260208101905061053f565b50505050905090810190601f1680156105875780820380516001836020036101000a031916815260200191505b5097505050505050505060405180910390f35b3480156105a657600080fd5b506105af611593565b604051808273ffffffffffffffffffffffffffffffffffffffff1673ffffffffffffffffffffffffffffffffffffffff16815260200191505060405180910390f35b3480156105fd57600080fd5b506106066115b8565b005b34801561061457600080fd5b5061061d611b10565b6040518082815260200191505060405180910390f35b34801561063f57600080fd5b50610648611b16565b6040518082815260200191505060405180910390f35b34801561066a57600080fd5b506107bb6004803603604081101561068157600080fd5b810190808035906020019064010000000081111561069e57600080fd5b8201836020820111156106b057600080fd5b803590602001918460018302840111640100000000831117156106d257600080fd5b91908080601f016020809104026020016040519081016040528093929190818152602001838380828437600081840152601f19601f8201169050808301925050505050505091929192908035906020019064010000000081111561073557600080fd5b82018360208201111561074757600080fd5b8035906020019184600183028401116401000000008311171561076957600080fd5b91908080601f016020809104026020016040519081016040528093929190818152602001838380828437600081840152601f19601f820116905080830192505050505050509192919290505050611b1c565b005b3480156107c957600080fd5b506107d2611eb5565b604051808215151515815260200191505060405180910390f35b3480156107f857600080fd5b50610801611ec8565b6040518080602001828103825283818151815260200191508051906020019080838360005b83811015610841578082015181840152602081019050610826565b50505050905090810190601f16801561086e5780820380516001836020036101000a031916815260200191505b509250505060405180910390f35b34801561088857600080fd5b50610891611f66565b6040518082815260200191505060405180910390f35b3480156108b357600080fd5b506108bc611f6c565b604051808273ffffffffffffffffffffffffffffffffffffffff1673ffffffffffffffffffffffffffffffffffffffff16815260200191505060405180910390f35b34801561090a57600080fd5b50610913611f92565b604051808215151515815260200191505060405180910390f35b34801561093957600080fd5b50610942611fa5565b604051808215151515815260200191505060405180910390f35b34801561096857600080fd5b50610971611fb8565b604051808273ffffffffffffffffffffffffffffffffffffffff1673ffffffffffffffffffffffffffffffffffffffff16815260200191505060405180910390f35b3480156109bf57600080fd5b506109c8611fde565b6040518082815260200191505060405180910390f35b6109e6611fe4565b005b3480156109f457600080fd5b50610a2160048036036020811015610a0b57600080fd5b8101908080359060200190929190505050612643565b604051808273ffffffffffffffffffffffffffffffffffffffff1673ffffffffffffffffffffffffffffffffffffffff16815260200191505060405180910390f35b600c60009054906101000a900460ff1681565b60098054600181600116156101000203166002900480601f016020809104026020016040519081016040528092919081815260200182805460018160011615610100020316600290048015610b0c5780601f10610ae157610100808354040283529160200191610b0c565b820191906000526020600020905b815481529060010190602001808311610aef57829003601f168201915b505050505081565b60065481565b600b8054600181600116156101000203166002900480601f016020809104026020016040519081016040528092919081815260200182805460018160011615610100020316600290048015610bb05780601f10610b8557610100808354040283529160200191610bb0565b820191906000526020600020905b815481529060010190602001808311610b9357829003601f168201915b505050505081565b60011515600d60003373ffffffffffffffffffffffffffffffffffffffff1673ffffffffffffffffffffffffffffffffffffffff16815260200190815260200160002060030160009054906101000a900460ff16151514610c81576040517f08c379a00000000000000000000000000000000000000000000000000000000081526004018080602001828103825260128152602001807f43616e6e6f74207061727469636970617465000000000000000000000000000081525060200191505060405180910390fd5b80600481905550600c60009054906101000a900460ff16610d0a576040517f08c379a00000000000000000000000000000000000000000000000000000000081526004018080602001828103825260128152602001807f426964206973206e6f742073746172746564000000000000000000000000000081525060200191505060405180910390fd5b60001515600c60019054906101000a900460ff16151514610d93576040517f08c379a000000000000000000000000000000000000000000000000000000000815260040180806020018281038252600c8152602001807f42696420697320656e646564000000000000000000000000000000000000000081525060200191505060405180910390fd5b60001515600c60029054906101000a900460ff16151514610e1c576040517f08c379a00000000000000000000000000000000000000000000000000000000081526004018080602001828103825260108152602001807f4269642069732063616e63656c6c65640000000000000000000000000000000081525060200191505060405180910390fd5b6003546004541015610e96576040517f08c379a00000000000000000000000000000000000000000000000000000000081526004018080602001828103825260108152602001807f496e73756666696369656e74206269640000000000000000000000000000000081525060200191505060405180910390fd5b60055460045411610f0f576040517f08c379a000000000000000000000000000000000000000000000000000000000815260040180806020018281038252600d8152602001807f506c6163656d6f7265206269640000000000000000000000000000000000000081525060200191505060405180910390fd5b600d60003373ffffffffffffffffffffffffffffffffffffffff1673ffffffffffffffffffffffffffffffffffffffff168152602001908152602001600020600201546004541115610f6057600080fd5b600454600581905550600454600d60003373ffffffffffffffffffffffffffffffffffffffff1673ffffffffffffffffffffffffffffffffffffffff1681526020019081526020016000206002016000828254039250508190555033600160006101000a81548173ffffffffffffffffffffffffffffffffffffffff021916908373ffffffffffffffffffffffffffffffffffffffff16021790555050565b60006006819055506000600260006101000a81548173ffffffffffffffffffffffffffffffffffffffff021916908373ffffffffffffffffffffffffffffffffffffffff1602179055506000809054906101000a900473ffffffffffffffffffffffffffffffffffffffff1673ffffffffffffffffffffffffffffffffffffffff163373ffffffffffffffffffffffffffffffffffffffff161461110b576040517f08c379a00000000000000000000000000000000000000000000000000000000081526004018080602001828103825260118152602001807f596f7520617265206e6f74206f776e657200000000000000000000000000000081525060200191505060405180910390fd5b60001515600c60009054906101000a900460ff16151514611194576040517f08c379a00000000000000000000000000000000000000000000000000000000081526004018080602001828103825260168152602001807f42696420697320616c726561647920737461727465640000000000000000000081525060200191505060405180910390fd5b6002600754101561120d576040517f08c379a00000000000000000000000000000000000000000000000000000000081526004018080602001828103825260118152602001807f496e7375666669656e742042696464657200000000000000000000000000000081525060200191505060405180910390fd5b60011515600c60039054906101000a900460ff16151514611296576040517f08c379a000000000000000000000000000000000000000000000000000000000815260040180806020018281038252601c8152602001807f506c6561736520736574206d696e696d756e206269642066697273740000000081525060200191505060405180910390fd5b6001600c60006101000a81548160ff02191690831515021790555060405180602001604052806000815250600990805190602001906112d692919061267f565b5060405180602001604052806000815250600a90805190602001906112fc92919061267f565b50565b6000809054906101000a900473ffffffffffffffffffffffffffffffffffffffff1673ffffffffffffffffffffffffffffffffffffffff163373ffffffffffffffffffffffffffffffffffffffff16146113c1576040517f08c379a00000000000000000000000000000000000000000000000000000000081526004018080602001828103825260158152602001807f596f7520617265206e6f7420746865206f776e6572000000000000000000000081525060200191505060405180910390fd5b806003819055506001600c60036101000a81548160ff02191690831515021790555050565b80600b90805190602001906113fc92919061267f565b5050565b600d602052806000526040600020600091509050806000018054600181600116156101000203166002900480601f0160208091040260200160405190810160405280929190818152602001828054600181600116156101000203166002900480156114ac5780601f10611481576101008083540402835291602001916114ac565b820191906000526020600020905b81548152906001019060200180831161148f57829003601f168201915b505050505090806001018054600181600116156101000203166002900480601f01602080910402602001604051908101604052809291908181526020018280546001816001161561010002031660029004801561154a5780601f1061151f5761010080835404028352916020019161154a565b820191906000526020600020905b81548152906001019060200180831161152d57829003601f168201915b5050505050908060020154908060030160009054906101000a900460ff16908060030160019054906101000a900473ffffffffffffffffffffffffffffffffffffffff16905085565b6000809054906101000a900473ffffffffffffffffffffffffffffffffffffffff1681565b6000600c60009054906101000a900460ff1661163c576040517f08c379a00000000000000000000000000000000000000000000000000000000081526004018080602001828103825260128152602001807f426964206973206e6f742073746172746564000000000000000000000000000081525060200191505060405180910390fd5b60001515600c60019054906101000a900460ff161515146116c5576040517f08c379a000000000000000000000000000000000000000000000000000000000815260040180806020018281038252600c8152602001807f42696420697320656e646564000000000000000000000000000000000000000081525060200191505060405180910390fd5b6000809054906101000a900473ffffffffffffffffffffffffffffffffffffffff1673ffffffffffffffffffffffffffffffffffffffff163373ffffffffffffffffffffffffffffffffffffffff1614611787576040517f08c379a00000000000000000000000000000000000000000000000000000000081526004018080602001828103825260118152602001807f596f7520617265206e6f74206f776e657200000000000000000000000000000081525060200191505060405180910390fd5b6001600c60026101000a81548160ff021916908315150217905550600090505b600754811015611a095760405180602001604052806000815250600d6000600884815481106117d257fe5b9060005260206000200160009054906101000a900473ffffffffffffffffffffffffffffffffffffffff1673ffffffffffffffffffffffffffffffffffffffff1673ffffffffffffffffffffffffffffffffffffffff168152602001908152602001600020600001908051906020019061184d92919061267f565b5060405180602001604052806000815250600d60006008848154811061186f57fe5b9060005260206000200160009054906101000a900473ffffffffffffffffffffffffffffffffffffffff1673ffffffffffffffffffffffffffffffffffffffff1673ffffffffffffffffffffffffffffffffffffffff16815260200190815260200160002060010190805190602001906118ea92919061267f565b506000600d6000600884815481106118fe57fe5b9060005260206000200160009054906101000a900473ffffffffffffffffffffffffffffffffffffffff1673ffffffffffffffffffffffffffffffffffffffff1673ffffffffffffffffffffffffffffffffffffffff168152602001908152602001600020600201819055506000600d60006008848154811061197d57fe5b9060005260206000200160009054906101000a900473ffffffffffffffffffffffffffffffffffffffff1673ffffffffffffffffffffffffffffffffffffffff1673ffffffffffffffffffffffffffffffffffffffff16815260200190815260200160002060030160006101000a81548160ff02191690831515021790555080806001019150506117a7565b6000600881611a1891906126ff565b506000600c60026101000a81548160ff0219169083151502179055506000600c60006101000a81548160ff0219169083151502179055506000600c60016101000a81548160ff0219169083151502179055506000600160006101000a81548173ffffffffffffffffffffffffffffffffffffffff021916908373ffffffffffffffffffffffffffffffffffffffff1602179055506000600581905550600060068190555060006003819055506040518060200160405280600081525060099080519060200190611ae992919061267f565b506000600c60036101000a81548160ff021916908315150217905550600060078190555050565b60075481565b60055481565b60001515600c60009054906101000a900460ff16151514611b88576040517f08c379a00000000000000000000000000000000000000000000000000000000081526004018080602001828103825260238152602001806127d86023913960400191505060405180910390fd5b60001515600d60003373ffffffffffffffffffffffffffffffffffffffff1673ffffffffffffffffffffffffffffffffffffffff16815260200190815260200160002060030160009054906101000a900460ff16151514611c51576040517f08c379a000000000000000000000000000000000000000000000000000000000815260040180806020018281038252600f8152602001807f416c72656164792070726573656e74000000000000000000000000000000000081525060200191505060405180910390fd5b81600d60003373ffffffffffffffffffffffffffffffffffffffff1673ffffffffffffffffffffffffffffffffffffffff1681526020019081526020016000206000019080519060200190611ca792919061267f565b5080600d60003373ffffffffffffffffffffffffffffffffffffffff1673ffffffffffffffffffffffffffffffffffffffff1681526020019081526020016000206001019080519060200190611cfe92919061267f565b503373ffffffffffffffffffffffffffffffffffffffff1631600d60003373ffffffffffffffffffffffffffffffffffffffff1673ffffffffffffffffffffffffffffffffffffffff1681526020019081526020016000206002018190555033600d60003373ffffffffffffffffffffffffffffffffffffffff1673ffffffffffffffffffffffffffffffffffffffff16815260200190815260200160002060030160016101000a81548173ffffffffffffffffffffffffffffffffffffffff021916908373ffffffffffffffffffffffffffffffffffffffff16021790555060083390806001815401808255809150509060018203906000526020600020016000909192909190916101000a81548173ffffffffffffffffffffffffffffffffffffffff021916908373ffffffffffffffffffffffffffffffffffffffff160217905550506001600d60003373ffffffffffffffffffffffffffffffffffffffff1673ffffffffffffffffffffffffffffffffffffffff16815260200190815260200160002060030160006101000a81548160ff0219169083151502179055506007600081548092919060010191905055505050565b600c60039054906101000a900460ff1681565b600a8054600181600116156101000203166002900480601f016020809104026020016040519081016040528092919081815260200182805460018160011615610100020316600290048015611f5e5780601f10611f3357610100808354040283529160200191611f5e565b820191906000526020600020905b815481529060010190602001808311611f4157829003601f168201915b505050505081565b60035481565b600160009054906101000a900473ffffffffffffffffffffffffffffffffffffffff1681565b600c60029054906101000a900460ff1681565b600c60019054906101000a900460ff1681565b600260009054906101000a900473ffffffffffffffffffffffffffffffffffffffff1681565b60045481565b600c60009054906101000a900460ff16612066576040517f08c379a00000000000000000000000000000000000000000000000000000000081526004018080602001828103825260128152602001807f426964206973206e6f742073746172746564000000000000000000000000000081525060200191505060405180910390fd5b6000809054906101000a900473ffffffffffffffffffffffffffffffffffffffff1673ffffffffffffffffffffffffffffffffffffffff163373ffffffffffffffffffffffffffffffffffffffff1614612128576040517f08c379a00000000000000000000000000000000000000000000000000000000081526004018080602001828103825260158152602001807f4f6e6c79206f776e65722061636365737361626c65000000000000000000000081525060200191505060405180910390fd5b600554600681905550600160009054906101000a900473ffffffffffffffffffffffffffffffffffffffff16600260006101000a81548173ffffffffffffffffffffffffffffffffffffffff021916908373ffffffffffffffffffffffffffffffffffffffff160217905550600d6000600160009054906101000a900473ffffffffffffffffffffffffffffffffffffffff1673ffffffffffffffffffffffffffffffffffffffff1673ffffffffffffffffffffffffffffffffffffffff1681526020019081526020016000206000016009908054600181600116156101000203166002900461221992919061272b565b50600d6000600160009054906101000a900473ffffffffffffffffffffffffffffffffffffffff1673ffffffffffffffffffffffffffffffffffffffff1673ffffffffffffffffffffffffffffffffffffffff168152602001908152602001600020600101600a908054600181600116156101000203166002900461229f92919061272b565b503373ffffffffffffffffffffffffffffffffffffffff166108fc349081150290604051600060405180830381858888f193505050501580156122e6573d6000803e3d6000fd5b506001600c60016101000a81548160ff02191690831515021790555060008090505b60075481101561256a5760405180602001604052806000815250600d60006008848154811061233357fe5b9060005260206000200160009054906101000a900473ffffffffffffffffffffffffffffffffffffffff1673ffffffffffffffffffffffffffffffffffffffff1673ffffffffffffffffffffffffffffffffffffffff16815260200190815260200160002060000190805190602001906123ae92919061267f565b5060405180602001604052806000815250600d6000600884815481106123d057fe5b9060005260206000200160009054906101000a900473ffffffffffffffffffffffffffffffffffffffff1673ffffffffffffffffffffffffffffffffffffffff1673ffffffffffffffffffffffffffffffffffffffff168152602001908152602001600020600101908051906020019061244b92919061267f565b506000600d60006008848154811061245f57fe5b9060005260206000200160009054906101000a900473ffffffffffffffffffffffffffffffffffffffff1673ffffffffffffffffffffffffffffffffffffffff1673ffffffffffffffffffffffffffffffffffffffff168152602001908152602001600020600201819055506000600d6000600884815481106124de57fe5b9060005260206000200160009054906101000a900473ffffffffffffffffffffffffffffffffffffffff1673ffffffffffffffffffffffffffffffffffffffff1673ffffffffffffffffffffffffffffffffffffffff16815260200190815260200160002060030160006101000a81548160ff0219169083151502179055508080600101915050612308565b50600060088161257a91906126ff565b506000600c60026101000a81548160ff0219169083151502179055506000600c60006101000a81548160ff0219169083151502179055506000600c60016101000a81548160ff0219169083151502179055506000600160006101000a81548173ffffffffffffffffffffffffffffffffffffffff021916908373ffffffffffffffffffffffffffffffffffffffff160217905550600060058190555060006003819055506000600c60036101000a81548160ff0219169083151502179055506000600781905550565b6008818154811061265057fe5b906000526020600020016000915054906101000a900473ffffffffffffffffffffffffffffffffffffffff1681565b828054600181600116156101000203166002900490600052602060002090601f016020900481019282601f106126c057805160ff19168380011785556126ee565b828001600101855582156126ee579182015b828111156126ed5782518255916020019190600101906126d2565b5b5090506126fb91906127b2565b5090565b8154818355818111156127265781836000526020600020918201910161272591906127b2565b5b505050565b828054600181600116156101000203166002900490600052602060002090601f016020900481019282601f1061276457805485556127a1565b828001600101855582156127a157600052602060002091601f016020900482015b828111156127a0578254825591600101919060010190612785565b5b5090506127ae91906127b2565b5090565b6127d491905b808211156127d05760008160009055506001016127b8565b5090565b9056fe416c72656164792073746172746564206e6f772063616e6e6f74206164642075736572a265627a7a72315820972dfaf37590d92089d2d08536efe3e0ba3a50f94d0f38af64b02d8d6c2978bc64736f6c63430005100032",
  "source": "pragma solidity >=0.5.13 < 0.7.3;\r\ncontract Auction{\r\n    address public owner;\r\n    address public highestbidder;\r\n    address public winneraddress;\r\n    uint256 public minbid;\r\n    uint256 public bidvalue;\r\n    uint256 public currentbid=0;\r\n    uint256 public winningvalue=0;\r\n    uint256 public size=0;\r\n    address [] public addr;\r\n    string public name;\r\n    string public phone_number;\r\n    string public title;\r\n    bool public strt = false;\r\n    bool public end = false;\r\n    bool public cancel = false;\r\n    bool public checkmin = false;\r\n    struct bidder{\r\n        string name;\r\n        string phone_number;\r\n        uint256 amount;\r\n        bool isuser;\r\n        address addr;\r\n    }\r\n    mapping(address => bidder) public bidderdetail;\r\n\r\n    function createuser(string memory _name,string memory _phone_number) public {\r\n        require(strt==false,\"Already started now cannot add user\");\r\n        require(bidderdetail[msg.sender].isuser==false,\"Already present\");\r\n        bidderdetail[msg.sender].name=_name;\r\n        bidderdetail[msg.sender].phone_number=_phone_number;\r\n        bidderdetail[msg.sender].amount = msg.sender.balance;\r\n        bidderdetail[msg.sender].addr = msg.sender;\r\n        addr.push(msg.sender);\r\n        bidderdetail[msg.sender].isuser = true;\r\n        size++;\r\n    }\r\n    constructor ()public {\r\n        owner = msg.sender;\r\n    }\r\n    function setTitle(string memory _title) public{\r\n      title = _title;\r\n    }\r\n    function minimumbid(uint256 _minubid) public {\r\n        require(msg.sender==owner,\"You are not the owner\");\r\n        minbid=_minubid;\r\n        checkmin = true;\r\n    }\r\n    function createbid(uint256 _bidvalue) public {\r\n        require(bidderdetail[msg.sender].isuser==true,\"Cannot participate\");\r\n        bidvalue=_bidvalue;\r\n        require(strt,\"Bid is not started\");\r\n        require(end==false,\"Bid is ended\");\r\n        require(cancel==false,\"Bid is cancelled\");\r\n        require(bidvalue>=minbid,\"Insufficient bid\");\r\n        require(bidvalue>currentbid,\"Placemore bid\");\r\n        require(bidvalue<=bidderdetail[msg.sender].amount);\r\n        currentbid=bidvalue;\r\n        bidderdetail[msg.sender].amount-=bidvalue;\r\n        highestbidder=msg.sender;\r\n    }\r\n    function startAuction() public{\r\n        winningvalue=0;\r\n        winneraddress=address(0);\r\n        require(msg.sender==owner,\"You are not owner\");\r\n        require(strt==false,\"Bid is already started\");\r\n        require(size>=2,\"Insuffient Bidder\");\r\n        require(checkmin==true,\"Please set minimun bid first\");\r\n        strt = true;\r\n\r\n        name=\"\";\r\n        phone_number=\"\";\r\n    }\r\n    function cancelAuction() public {\r\n        uint256 i;\r\n        require(strt,\"Bid is not started\");\r\n        require(end==false,\"Bid is ended\");\r\n        require(msg.sender==owner,\"You are not owner\");\r\n        cancel=true;\r\n        for(i=0;i<size;i++)\r\n        {\r\n            bidderdetail[addr[i]].name=\"\";\r\n            bidderdetail[addr[i]].phone_number=\"\";\r\n            bidderdetail[addr[i]].amount=0;\r\n            bidderdetail[addr[i]].isuser=false;\r\n        }\r\n        addr.length=0;\r\n        cancel=false;\r\n        strt=false;\r\n        end=false;\r\n        highestbidder=address(0);\r\n        currentbid=0;\r\n        winningvalue=0;\r\n        minbid=0;\r\n        name=\"\";\r\n        checkmin=false;\r\n        size = 0;\r\n    }\r\n    function endAuction() public payable{\r\n        require(strt,\"Bid is not started\");\r\n        require(msg.sender==owner,\"Only owner accessable\");\r\n        winningvalue=currentbid;\r\n        winneraddress=highestbidder;\r\n        name = bidderdetail[highestbidder].name;\r\n        phone_number = bidderdetail[highestbidder].phone_number;\r\n        address(msg.sender).transfer(msg.value);\r\n        end = true;\r\n        for(uint i=0;i<size;i++)\r\n        {\r\n            bidderdetail[addr[i]].name=\"\";\r\n            bidderdetail[addr[i]].phone_number=\"\";\r\n            bidderdetail[addr[i]].amount=0;\r\n            bidderdetail[addr[i]].isuser=false;\r\n        }\r\n        addr.length=0;\r\n        cancel=false;\r\n        strt=false;\r\n        end=false;\r\n        highestbidder=address(0);\r\n        currentbid=0;\r\n        minbid=0;\r\n        checkmin=false;\r\n        size = 0;\r\n    }\r\n}\r\n",
  "sourcePath": "F:/chain/auction block/contracts/Auction.sol",
  "compiler": {
    "name": "solc",
    "version": "0.5.16+commit.9c3226ce.Emscripten.clang"
  },
  "schemaVersion": "3.3.4",
  "updatedAt": "2021-03-20T12:51:37.208Z",
  "networkType": "ethereum",
  "devdoc": {
    "methods": {}
  },
  "userdoc": {
    "methods": {}
  }
}